{
  "contractName": "CoinFlip",
  "abi": [
    {
      "constant": true,
      "inputs": [],
      "name": "ContractBalance",
      "outputs": [
        {
          "internalType": "uint256",
          "name": "",
          "type": "uint256"
        }
      ],
      "payable": false,
      "stateMutability": "view",
      "type": "function"
    },
    {
      "constant": true,
      "inputs": [],
      "name": "owner",
      "outputs": [
        {
          "internalType": "address",
          "name": "",
          "type": "address"
        }
      ],
      "payable": false,
      "stateMutability": "view",
      "type": "function"
    },
    {
      "constant": false,
      "inputs": [],
      "name": "FlipCoin",
      "outputs": [],
      "payable": true,
      "stateMutability": "payable",
      "type": "function"
    },
    {
      "constant": false,
      "inputs": [],
      "name": "CashOut",
      "outputs": [
        {
          "internalType": "uint256",
          "name": "",
          "type": "uint256"
        }
      ],
      "payable": false,
      "stateMutability": "nonpayable",
      "type": "function"
    },
    {
      "constant": false,
      "inputs": [],
      "name": "withdrawAll",
      "outputs": [
        {
          "internalType": "uint256",
          "name": "",
          "type": "uint256"
        }
      ],
      "payable": false,
      "stateMutability": "nonpayable",
      "type": "function"
    }
  ],
  "bytecode": "0x6080604052336000806101000a81548173ffffffffffffffffffffffffffffffffffffffff021916908373ffffffffffffffffffffffffffffffffffffffff16021790555061033a806100536000396000f3fe60806040526004361061004a5760003560e01c8063303a00251461004f5780633b66805914610059578063853828b6146100845780638da5cb5b146100af578063a1e564b114610106575b600080fd5b610057610131565b005b34801561006557600080fd5b5061006e610143565b6040518082815260200191505060405180910390f35b34801561009057600080fd5b50610099610149565b6040518082815260200191505060405180910390f35b3480156100bb57600080fd5b506100c4610201565b604051808273ffffffffffffffffffffffffffffffffffffffff1673ffffffffffffffffffffffffffffffffffffffff16815260200191505060405180910390f35b34801561011257600080fd5b5061011b610226565b6040518082815260200191505060405180910390f35b60648034101561014057600080fd5b50565b60015481565b60008060009054906101000a900473ffffffffffffffffffffffffffffffffffffffff1673ffffffffffffffffffffffffffffffffffffffff163373ffffffffffffffffffffffffffffffffffffffff16146101a457600080fd5b6000600154905060006001819055503373ffffffffffffffffffffffffffffffffffffffff166108fc829081150290604051600060405180830381858888f193505050501580156101f9573d6000803e3d6000fd5b508091505090565b6000809054906101000a900473ffffffffffffffffffffffffffffffffffffffff1681565b600080600260003373ffffffffffffffffffffffffffffffffffffffff1673ffffffffffffffffffffffffffffffffffffffff1681526020019081526020016000206000015490506000600260003373ffffffffffffffffffffffffffffffffffffffff1673ffffffffffffffffffffffffffffffffffffffff168152602001908152602001600020600001819055503373ffffffffffffffffffffffffffffffffffffffff166108fc829081150290604051600060405180830381858888f193505050501580156102fc573d6000803e3d6000fd5b5060019150509056fea265627a7a723158209d46f9384c9b156af12d09532d235559fcca7b6f9e309097386ebff1ddbf381b64736f6c634300050c0032",
  "source": "// coinflip.sol\nimport \"./Ownable.sol\";\npragma solidity 0.5.12;\n\ncontract CoinFlip is Ownable{\n\n    struct Player {\n    \tuint Balance;\n    }\n\n    uint public ContractBalance;\n\n    modifier costs(uint cost){\n        require(msg.value >= cost);\n        _;\n    }\n\n    mapping (address => Player) private players;\n\n    function FlipCoin() public payable costs(100 wei){\n\t}\n\n\tfunction CashOut() public returns(uint) {\n\t\tuint cashout;\n\n\t\tcashout = players[msg.sender].Balance;\n\t\tplayers[msg.sender].Balance = 0;\n\t\tmsg.sender.transfer(cashout);\n\t\treturn 1;\n\t}\n\n   function withdrawAll() public onlyOwner returns(uint) {\n       uint toTransfer = ContractBalance;\n       ContractBalance = 0;\n       msg.sender.transfer(toTransfer);\n       return toTransfer;\n   }\n\n}",
  "sourcePath": "/home/buzz/coinflip/contracts/coinflip.sol",
  "compiler": {
    "name": "solc",
    "version": "0.5.12+commit.7709ece9.Emscripten.clang"
  },
  "schemaVersion": "3.0.16",
  "updatedAt": "2020-11-01T13:37:23.385Z",
  "devdoc": {
    "methods": {}
  },
  "userdoc": {
    "methods": {}
  }
}